{
  "transactions": [
    {
      "hash": "0x4e5cc2c76e9a7d22b6e2341d2a1c67ef8b3a601f860856f22ee5f3e75121702b",
      "transactionType": "CALL",
      "contractName": null,
      "contractAddress": "0x8054091c2248b938782ff3ec4772065ab90b6314",
      "function": "transfer(address,uint256)",
      "arguments": [
        "0x53F622A0a117D7E83f620957033c4cFC8a32067F",
        "1000000000000000000000"
      ],
      "transaction": {
        "from": "0xdb6e602b5b90100f5a149398abf2dafbbd1d0386",
        "to": "0x8054091c2248b938782ff3ec4772065ab90b6314",
        "gas": "0x125f2",
        "value": "0x0",
        "input": "0xa9059cbb00000000000000000000000053f622a0a117d7e83f620957033c4cfc8a32067f00000000000000000000000000000000000000000000003635c9adc5dea00000",
        "nonce": "0x17",
        "chainId": "0xaa36a7"
      },
      "additionalContracts": [],
      "isFixedGasLimit": false
    }
  ],
  "receipts": [
    {
      "type": "0x2",
      "status": "0x1",
      "cumulativeGasUsed": "0xe6d831",
      "logs": [
        {
          "address": "0x8054091c2248b938782ff3ec4772065ab90b6314",
          "topics": [
            "0xddf252ad1be2c89b69c2b068fc378daa952ba7f163c4a11628f55a4df523b3ef",
            "0x000000000000000000000000db6e602b5b90100f5a149398abf2dafbbd1d0386",
            "0x00000000000000000000000053f622a0a117d7e83f620957033c4cfc8a32067f"
          ],
          "data": "0x00000000000000000000000000000000000000000000003635c9adc5dea00000",
          "blockHash": "0x8c443fbf4a2199974fe0cdc58b096001d060a65645150279850ee051c55b2c70",
          "blockNumber": "0xa92e76",
          "blockTimestamp": "0x6a33f7b8",
          "transactionHash": "0x4e5cc2c76e9a7d22b6e2341d2a1c67ef8b3a601f860856f22ee5f3e75121702b",
          "transactionIndex": "0xe0",
          "logIndex": "0x14e",
          "removed": false
        }
      ],
      "logsBloom": "0x00000000000000000000000000000000000000000000000000000001000000000000000000000000000000000000000000000000000000000000000000000000000000000000000000000008000000000000000000000002000002000000000004000000000000000000000000000000000000000000000000000010000000000000000000002800000000000001000000000000000000000000040000000000000000000000000000000000000000000000000000000000000004000000000000000002000000000000000000000000000000000000000000000000000000000000000000000000000000000000000000000000000000000000000000000000",
      "transactionHash": "0x4e5cc2c76e9a7d22b6e2341d2a1c67ef8b3a601f860856f22ee5f3e75121702b",
      "transactionIndex": "0xe0",
      "blockHash": "0x8c443fbf4a2199974fe0cdc58b096001d060a65645150279850ee051c55b2c70",
      "blockNumber": "0xa92e76",
      "gasUsed": "0xd4d0",
      "effectiveGasPrice": "0x40b3c926",
      "from": "0xdb6e602b5b90100f5a149398abf2dafbbd1d0386",
      "to": "0x8054091c2248b938782ff3ec4772065ab90b6314",
      "contractAddress": null
    }
  ],
  "libraries": [],
  "pending": [],
  "returns": {},
  "timestamp": 1781790649667,
  "chain": 11155111,
  "commit": "3eb4028"
}